:100000000C94FC000C9419010C9419010C94190126
:100010000C9419010C9419010C9419010C941901F8
:100020000C9419010C9419010C949F1F0C94DA1F65
:100030000C9419010C9419010C9419010C941901D8
:100040000C9419010C9419010C9419010C941901C8
:100050000C9419010C949F230C9419010C94190110
:100060000C9419010C9419010C9419010C941901A8
:100070000C9419010C9429010C9419010C94190188
:100080000C9419010C9419010C9419010C94C121C0
:100090000C9419010C9419010C94ED210C94190184
:1000A0000C9419010C9419010C941901341F311F7F
:1000B0002E1F2B1F281F251F221F1F1F1C1F191F2C
:1000C000161F131F101F0D1F0A1F071F041F011FDC
:1000D000FE1EFB1EF81EF51EF21EEF1EEC1EE91E94
:1000E000E61EE31EE01EDD1EDA1ED71ED41ED11E44
:1000F000CE1ECB1EC81EC51EC21EBF1EBC1EB91EF4
:10010000B61EB31EB01EAD1EAA1EA71EA41EA11EA3
:100110009E1E9B1E981E951E921E8F1E8C1E891E53
:10012000861E831E801E7D1E7A1E771E741E000191
:10013000000062011200020000740143000300008D
:10014000B7010401030904BB011402030904D1012E
:100150001603030904E9010C0001C11201803601F4
:1001600081361201000202000010C0167A0400015C
:100170000102030109024300020100C03209040028
:100180000001020201000524001001052401010103
:10019000042402060524060001070582031000401E
:1001A00009040100020A00000007050302400000E4
:1001B0000705840240000004030904140359006F7A
:1001C000007500720020004E0061006D00650000A7
:1001D00000160355005300420020005300650072D2
:1001E00000690061006C0000000C03310032003334
:1001F000003400350000000011241FBECFEFDAE00C
:10020000DEBFCDBF12E0A0E0B1E0E6E1F5E502C05F
:1002100005900D92A03FB107D9F719E0A0EFB2E029
:1002200001C01D92A939B107E1F70E94A5220C94E3
:10023000892A0C94000080E680937C0083E0809300
:100240007B0008958EEA80937A00089510927A00D8
:1002500008951F920F920FB60F9211242F933F9380
:100260004F935F936F937F938F939F93AF93BF93BE
:10027000EF93FF93809179000E947101FF91EF91BC
:10028000BF91AF919F918F917F916F915F914F91AE
:100290003F912F910F900FBE0F901F9018952091B6
:1002A0000001309101013093130320931203309326
:1002B00015072093140790930F0380930E037093F8
:1002C0001103609310030895809100019091010142
:1002D0009093130380931203909315078093140750
:1002E0000895E0911203F09113038193F0931303A7
:1002F000E09312038091020190910301E817F9073E
:1003000031F4E0910E03F0910F0309950895809167
:10031000040190910501E817F90769F48091000143
:10032000909101019093130380931203E0910E03C7
:10033000F0910F03099508951F93E0911407F09130
:1003400015071191F0931507E093140780910201AE
:1003500090910301E817F90779F0809104019091D9
:100360000501E817F90769F48091000190910101F6
:100370009093150780931407E0911003F0911103F7
:100380000995812F1F91089550910001409101011D
:10039000252F342F809114079091150728173907BE
:1003A00048F45091020140910301309315072093C6
:1003B000140708C0809102019091030190931507E2
:1003C00080931407852F942F089550910001409138
:1003D0000101252F342F80911203909113032817C8
:1003E000390748F4509102014091030130931303FF
:1003F0002093120308C08091020190910301909311
:10040000130380931203852F942F08950F931F9346
:10041000CF93DF93EC018B01BA0120E030E00EC0F6
:10042000FE01E20FF31FD801A20FB31F8D919C9123
:1004300091838083425050402E5F3F4F42305105A0
:1004400078F7CB018E7FFE01E80FF91FD801A80FC6
:10045000B91F60FF02C08C918083DF91CF911F9103
:100460000F910895EF92FF920F931F93CF93DF9315
:10047000EC017A018B018EEF9FEFAFEFBFEFE80E3B
:10048000F91E0A1F1B1F8A899B89AC89BD890297A7
:10049000A109B109E816F9060A071B0728F020E0B0
:1004A00030E040E050E012C02A8130E040E050E00F
:1004B000C801B7010E9436279B01AC018EA19FA104
:1004C000A8A5B9A5280F391F4A1F5B1FB901CA018A
:1004D000DF91CF911F910F91FF90EF900895CF93EF
:1004E000DF93EC01A881B981109719F1FD0101C0DA
:1004F00031968081813218F08A33D1F705C08A3372
:1005000019F020E030E017C08C91282F332727FD09
:100510003095205330402A30310558F41196AE17EB
:10052000BF0739F42230310520F43196F983E8838E
:1005300002C02FEF3FEFC901DF91CF910895FC0179
:100540000097C9F0A081B1811097A9F08C91882300
:1005500091F016962D913C911797828193812817DF
:10056000390749F411968C910E94C01A80FD03C08E
:1005700020E030E002C029E030E0C90108958F9208
:100580009F92AF92BF92CF92DF92EF92FF920F9322
:100590001F93CF93DF93EC018C81882309F445C02E
:1005A000CAA4DBA4ECA4FDA48EE2882E912C8C0EB0
:1005B0009D1E8981B401A701960101E010E00E940F
:1005C000221B892B19F021E030E031C01C828E8D76
:1005D0009F8DA8A1B9A1A7019601281B390B4A0B31
:1005E0005B0B8E899F89A88DB98D281739074A071B
:1005F0005B07D8F48B81A82EBB2413C08E899F89FA
:10060000A88DB98DC80ED91EEA1EFB1E8981B401C2
:10061000A701960101E010E00E94221B0894A108A6
:10062000B10882E0A816B10448F720E030E0C90123
:10063000DF91CF911F910F91FF90EF90DF90CF90BE
:10064000BF90AF909F908F900895AF92BF92CF923E
:10065000DF92EF92FF920F931F93CF93DF935C0192
:100660006A017B01FC0182A593A5A4A5B5A5481745
:1006700059076A077B0719F4C0E0D0E01EC0C50126
:100680000E94BF02EC010097C1F4B501625D7F4F8B
:10069000F5018181A701960101E010E00E94C71ACF
:1006A000892B31F0CC24CA94DC2C7601C1E0D0E057
:1006B000F501C2A6D3A6E4A6F5A6CE01DF91CF919F
:1006C0001F910F91FF90EF90DF90CF90BF90AF9070
:1006D0000895CF93DF93EC011C828FEF9FEFAFEF74
:1006E000BFEF8AA79BA7ACA7BDA7CE010E94250399
:1006F000892B11F023E029C0C45DDD4F88819981E9
:10070000CC52D24085559A4A11F022E01EC0CC59F5
:10071000DF4F88819981AA81BB81C456D040B070D7
:1007200086549144A445B04011F420E00EC020E06E
:10073000C058DF4F88819981AA81BB81B0708654EF
:100740009144A445B04009F021E0822FDF91CF9180
:1007500008956F927F928F929F92AF92BF92CF92A5
:10076000DF92EF92FF920F931F93CF93DF935C0181
:100770006A017B013801490142305105610571056B
:1007800008F4D1C0F50182899389A489B5894817F5
:1007900059076A077B0708F0C6C08081823009F4D8
:1007A0006CC0833009F489C0813009F0BCC0EA0113
:1007B000D695C795C40FD51FAE01452F5527469531
:1007C00060E070E0F501868D978DA0A1B1A1480F82
:1007D000591F6A1F7B1FC5010E942503AC010097AA
:1007E00009F0A3C0DE01B17021968601017010707E
:1007F0000115110551F0F501EA0FFB1F86A58F7059
:10080000962D9295907F982B01C0962DAA0DBB1D19
:100810009E969C9381E0F5018483AE01452F552778
:10082000469560E070E0868D978DA0A1B1A1480F3C
:10083000591F6A1F7B1FC5010E942503AC01009749
:1008400009F073C0D170012B49F0E4E096948794CD
:1008500077946794EA95D1F7662D0BC0F501EC0FFC
:10086000FD1F66A5607FBB27A92D982D872D8F7052
:10087000682BCA0DDB1D6EA752C077276F2D5E2D2A
:100880004D2DF501868D978DA0A1B1A1480F591F5F
:100890006A1F7B1FC5010E942503AC01009709F068
:1008A00044C0CC0CDD1CEE1CFF1CF601F170BE96A2
:1008B000EA0DFB1D7182608232C027E07695679554
:1008C000579547952A95D1F7F501868D978DA0A16B
:1008D000B1A1480F591F6A1F7B1FC5010E94250344
:1008E000AC01009711F592E0CC0CDD1CEE1CFF1C56
:1008F0009A95D1F7F601F170BE96EA0DFB1D808145
:100900009181A281B38180709070A070B07F8629A0
:100910009729A829B92980839183A283B38381E091
:10092000F501848302C042E050E0CA01DF91CF911B
:100930001F910F91FF90EF90DF90CF90BF90AF90FD
:100940009F908F907F906F900895BF92CF92DF928B
:10095000EF92FF920F931F93CF93DF936C017A0175
:100960008B01423051056105710508F4ACC0F601F8
:1009700082899389A489B589481759076A077B0733
:1009800008F0A1C08081823009F457C0833009F497
:1009900074C0813009F097C0EA01D695C795C40F9D
:1009A000D51FAE01452F5527469560E070E0F60152
:1009B000868D978DA0A1B1A1480F591F6A1F7B1F7B
:1009C000C6010E942503892B09F082C0FE01F17047
:1009D000EC0DFD1DB6A42196AE01452F5527469579
:1009E00060E070E0F601868D978DA0A1B1A1480F5F
:1009F000591F6A1F7B1FC6010E942503892B09F01E
:100A000067C06B2D70E0D170CC0DDD1D9EA580E020
:100A1000682B792BC70181709070892B39F044E0E5
:100A2000769567954A95E1F79B0124C09B0140E0CC
:100A300050E03F70407050704FC0452F562F672FC9
:100A40007727F601868D978DA0A1B1A1480F591F78
:100A50006A1F7B1FC6010E942503892BC9F5EE0C76
:100A6000FF1C001F111FF701F170EC0DFD1D86A585
:100A700097A59C0140E050E02FC097E076956795E0
:100A8000579547959A95D1F7F601868D978DA0A138
:100A9000B1A1480F591F6A1F7B1FC6010E94250381
:100AA000892BB1F482E0EE0CFF1C001F111F8A9508
:100AB000D1F7F701F170EC0DFD1D26A537A540A972
:100AC00051A95F7009C021E030E040E050E004C06F
:100AD0002FEF3FEF4FEF5FEFB901CA01DF91CF91E9
:100AE0001F910F91FF90EF90DF90CF90BF900895EE
:100AF0004F925F926F927F928F929F92AF92BF922E
:100B0000CF92DF92EF92FF920F931F93CF93DF93D9
:100B1000EC012A013B01411551056105710599F46C
:100B20008A849B84AC84BD8481149104A104B104A3
:100B300051F18A899B89AC89BD8988169906AA06D4
:100B4000BB0608F525C00E94A5049B01AC016230DC
:100B500071058105910508F494C02F3F8FEF380788
:100B60008FEF48078FEF580709F499C08A899B894E
:100B7000AC89BD89281739074A075B0708F48FC07D
:100B80005301420105C0A1E08A2E912CA12CB12C69
:100B9000750164010894C11CD11CE11CF11C8A89F7
:100BA0009B89AC89BD89C816D906EA06FB0660F0A8
:100BB00022E082169104A104B10408F46CC0F2E0B2
:100BC000CF2ED12CE12CF12CCE01B701A6010E9431
:100BD000A5049B01AC016115710581059105A9F082
:100BE0002F3F8FEF38078FEF48078FEF580709F433
:100BF00056C0213031054105510509F450C0C814D3
:100C0000D904EA04FB0431F646C0BC2CAD2C9E2C62
:100C10008F2CCE01A601B7010FEF1FEF2FEF3FE0A2
:100C20000E94A903009759F541145104610471040D
:100C300049F0CE01B301A201860197010E94A903E8
:100C40000097E9F4BA86AB869C868D868E859F8553
:100C5000A889B9898F3F2FEF92072FEFA2072FEFB7
:100C6000B20751F00197A109B1098E879F87A88B20
:100C7000B98B8D8181608D83A701960110C001978A
:100C800029F021E030E040E050E009C02FEF3FEFD5
:100C90004FEF5FEF04C020E030E040E050E0B901EA
:100CA000CA01DF91CF911F910F91FF90EF90DF90DC
:100CB000CF90BF90AF909F908F907F906F905F90FC
:100CC0004F9008952F923F924F925F926F927F9232
:100CD0008F929F92AF92BF92CF92DF92EF92FF924C
:100CE0000F931F93DF93CF9300D000D000D0CDB7E8
:100CF000DEB79E838D837A018B010E949F029A83C7
:100D00008983892B09F0B6C1AD81BE8115968C917E
:100D1000882319F0E82FF0E09DC0AD81BE811A96BE
:100D20006D907D908D909C901D976E147F04800631
:100D3000910620F414968C9181FF02C0370148017E
:100D4000ED81FE81E680F78000851185168217828D
:100D500010861186611471048104910409F457C14D
:100D60000190F081E02DFC83EB838281A82EBB24CF
:100D7000CC24DD2499E0AA0CBB1CCC1CDD1C9A956C
:100D8000D1F7E114F10401051105C1F117012801A2
:100D900008942108310841085108C401B301615089
:100DA000704080409040A60195010E94692779011A
:100DB0008A01C201B101A60195010E946927E216CC
:100DC000F30604071507D0F088279927DC018A1954
:100DD0009B09AC09BD0982219321A421B521ED8194
:100DE000FE8186839783A087B187681A790A8A0A69
:100DF0009B0A42895389648975893DC0AD81BE8152
:100E00001E964D915D916D917C91519741155105C3
:100E10006105710551F58B819C8140E050E060E0F7
:100E200070E00E947805AB01BC01413051056105BD
:100E3000710509F465C04F3F3FEF53073FEF63076C
:100E40003FEF730751F481E0AD81BE8115968C931D
:100E5000E1E0F0E0FA83E9830DC1AD81BE811E9629
:100E60004D935D936D937C935197ED81FE81428B01
:100E7000538B648B758B411551056105710509F024
:100E80005FC0C5C0AD81BE8114968C9114972D9121
:100E90003C9181FF0DC0C9010E947805AB01BC01E6
:100EA000411551056105710541F4350146014EC0FA
:100EB000C9010E94A504AB01BC014F3FBFEF5B0716
:100EC000BFEF6B07BFEF7B0749F481E0ED81FE8147
:100ED000858321E030E03A832983CCC0423051053C
:100EE0006105710568F0AD81BE81ED91FC9182894B
:100EF0009389A489B589481759076A077B0738F091
:100F000082E0ED81FE81858322E030E0E4CFAD8197
:100F1000BE8152964D935D936D937C935597FD01E1
:100F200086819781A085B1858A0D9B1DAC1DBD1D55
:100F300086839783A087B1876A187B088C089D08F1
:100F4000A614B704C804D90408F49CCFED81FE812F
:100F500086819781A085B185860D971DA81DB91D35
:100F600086839783A087B187D401C3019170A07055
:100F7000B0700097A105B10509F449C0C080D180C7
:100F80008EEFE82E8FEFF82E8FEF082F8FEF182FB0
:100F9000E40EF51E061F171FF60182899389A489A6
:100FA000B5890297A109B109E816F9060A071B07D6
:100FB000C0F4228130E040E050E0C801B7010E9457
:100FC00036279B01AC01F60186A197A1A0A5B1A58A
:100FD000280F391F4A1F5B1F211531054105510597
:100FE00041F482E0AD81BE8115968C93E2E0F0E0A1
:100FF00031CF84017301B9E016950795F794E79412
:10100000BA95D1F7E20EF31E041F151F03C0EE249C
:10101000FF248701ED81FE8186819781A085B185BE
:101020009170A070B0700097A105B10569F0868934
:101030009789A08DB18DE816F9060A071B0721F0E4
:10104000E68AF78A008F118FED81FE812681378134
:101050004085518582859385A485B5858217930740
:10106000A407B50738F422873387448755878481DE
:101070008062848389819A8126960FB6F894DEBFB8
:101080000FBECDBFCF91DF911F910F91FF90EF90D9
:10109000DF90CF90BF90AF909F908F907F906F9098
:1010A0005F904F903F902F9008956F927F928F9214
:1010B0009F92AF92BF92CF92DF92EF92FF920F93E7
:1010C0001F93CF93DF933C014B01DC0115967C937A
:1010D0006E9314971696ED90FD900D911C911997B3
:1010E000B1E0EB16F1040105110509F4C5C0DC01FE
:1010F000ED91FC9182899389A489B589E816F90656
:101100000A071B0708F0B8C0E114F1040105110536
:10111000C1F48081833041F482A193A1A4A1B5A13F
:101120000097A105B10559F4808591858816990627
:1011300008F0A2C022A133A144A155A167C07C013F
:101140008D018281C82EDD24E4E0CC0CDD1CEA9503
:10115000E1F727C0CE01B801A7010E94A5047B01D9
:101160008C016F3FBFEF7B07BFEF8B07BFEF9B0784
:1011700019F421E030E082C06230710581059105EB
:1011800008F47AC0D301ED91FC9182899389A489F6
:10119000B589E816F9060A071B0708F06DC08C1818
:1011A0009D08F301C081D1818C149D0498F67EEFD7
:1011B000A72E7FEFB72E7FEFC72E7FEFD72EAE0C77
:1011C000BF1CC01ED11E8A899B89AC89BD8902972C
:1011D000A109B109A816B906CA06DB0628F020E065
:1011E00030E040E050E012C02A8130E040E050E0C2
:1011F000C601B5010E9436279B01AC018EA19FA1BB
:10120000A8A5B9A5280F391F4A1F5B1FD3011A963D
:10121000ED92FD920D931C931D972115310541050B
:10122000510551F1C40164E0969587956A95E1F7FF
:10123000A0E0B0E0820F931FA41FB51FF3018687C3
:101240009787A08BB18BFFE08F22992425E0880C33
:10125000991C2A95E1F78EE290E0880E991ED30141
:101260008D919C911197880D991D53969C938E9307
:10127000529720E030E002C022E030E0C901DF9167
:10128000CF911F910F91FF90EF90DF90CF90BF9083
:10129000AF909F908F907F906F9008952F923F9284
:1012A0004F925F926F927F928F929F92AF92BF9276
:1012B000CF92DF92EF92FF920F931F93DF93CF9322
:1012C00000D000D0CDB7DEB79C838B83162F072FBD
:1012D0002A013A832983D9011D921C920E949F0200
:1012E0003C01009709F072C1EB81FC818581882364
:1012F00019F0682E77246AC1AB81BC8114968C9159
:1013000080FD04C077E0672E712C60C1EB81FC8109
:10131000228533854485558586819781A085B18551
:10132000281B390B4A0B5B0BC201A0E0B0E0281769
:1013300039074A075B0708F42901812F902F9C0188
:10134000190140C1AB81BC8116962D913D914D9103
:101350005C911997DA01C9019170A070B070009783
:10136000A105B10509F0DAC0AB81BC81ED91FC911A
:10137000DA01C90169E0B695A795979587956A95B1
:10138000D1F792809A94982281F521153105410573
:10139000510539F4EB81FC816685778580899189D7
:1013A0000BC0AB81BC8152964D915D916D917C914A
:1013B0005597CF010E94A504623071058105910502
:1013C00028F482E0EB81FC81858347C06F3FFFEF0B
:1013D0007F07FFEF8F07FFEF9F0709F467C0EB81DF
:1013E000FC81628B738B848B958BAB81BC810D915F
:1013F0001C91119752962D913D914D915C9155976D
:101400002250304040405040F80182899389A4899D
:10141000B5890297A109B109281739074A075B075F
:10142000B8F48280682D70E080E090E00E9436275A
:101430009B01AC01F80186A197A1A0A5B1A5280F39
:10144000391F4A1F5B1F211531054105510549F41C
:1014500082E0AB81BC8115968C9392E0692E712C51
:10146000B5C069017A01C90CD11CE11CF11C520103
:10147000AB2CBB24A694A114B10409F449C0292DB6
:1014800030E0C501820F931F682D70E0681779075F
:1014900018F45B01A21AB30AF8018181B101A70116
:1014A000960185010E94C71A892B31F081E0AB813A
:1014B000BC8115968C934AC0AB81BC81ED91FC91A7
:1014C0008481882301F122A533A544A555A52C19B3
:1014D0003D094E095F09C501A0E0B0E028173907B2
:1014E0004A075B0780F4B9E0220F331F441F551FE2
:1014F000BA95D1F7C101820F931FBE96BF0140E09C
:1015000052E00E9406028501102F0027110F3DC0F6
:10151000EB81FC81C68AD78AE08EF18EAB81BC81DB
:101520001696ED90FD900D911C91199756964D9140
:101530005D916D917C9159978D919C910E942503AD
:10154000892B41F081E0EB81FC818583F1E06F2EF6
:10155000712C3CC0C701917020E032E0281B390B90
:1015600082012415350508F48901AB81BC811696EA
:101570008D919C91179791708E966D917C91680FCB
:10158000791FC101A8010E940602200E311EC80168
:10159000A0E0B0E0EB81FC81268137814085518558
:1015A000280F391F4A1F5B1F2683378340875187C7
:1015B000E981FA8180819181800F911F91838083DD
:1015C000401A510A4114510409F0BCCEC3010F90D6
:1015D0000F900F900F90CF91DF911F910F91FF907F
:1015E000EF90DF90CF90BF90AF909F908F907F90C3
:1015F0006F905F904F903F902F9008954F925F9221
:101600006F927F928F929F92AF92BF92CF92DF9212
:10161000EF92FF920F931F93DF93CF9300D000D0F0
:10162000CDB7DEB76C015B014A017C0100E010E040
:101630000894A108B108E3E04E2E512C4C0E5D1E1B
:101640003E010894611C711C13C0C401B30141E048
:1016500050E092010E944E098B819C81019759F4C0
:101660008981F70181937F010F5F1F4F8A3019F045
:101670000A151B0554F3F7011082012B11F4CC2439
:10168000DD24C6010F900F900F900F90CF91DF9146
:101690001F910F91FF90EF90DF90CF90BF90AF9090
:1016A0009F908F907F906F905F904F9008954F9292
:1016B0005F926F927F928F929F92AF92BF92CF92E2
:1016C000DF92EF92FF920F931F93CF93DF93EC0182
:1016D0006B016C807D800894611C711C6114710425
:1016E00009F44EC18E859F85A889B9890097A10507
:1016F000B10509F445C11FE0412E512C4620572069
:101700004114510409F028C10196A11DB11D8E8715
:101710009F87A88BB98B4A855B856C857D85E88121
:10172000F981411551056105710539F4808591856F
:101730006816790608F410C123C1828190E00197F0
:101740009301B4E036952795BA95E1F78223932368
:10175000892B09F001C1CF010E94A5047B018C01F6
:10176000623071058105910508F40DC18FEFE8160F
:101770008FEFF8068FEF08078FEF180709F406C1FF
:10178000E881F98182899389A489B589E816F906E7
:101790000A071B0708F4A7C0CD2809F4F1C04A8541
:1017A0005B856C857D85CF010E9478057B018C016E
:1017B000611571058105910519F427E030E0E8C055
:1017C00091E0E916F1040105110509F4DCC0AFEF61
:1017D000EA16AFEFFA06AFEF0A07AFEF1A0709F400
:1017E000D5C0888199810E94BF02892B09F0CEC0A3
:1017F000E881F981BE9680E092E001C011920197E4
:10180000BFEF8F3F9B07D1F788809980AEEFAA2E5C
:10181000AFEFBA2EAFEFCA2EAFEFDA2EAE0CBF1C71
:10182000C01ED11EF40182899389A489B5890297CB
:10183000A109B109A816B906CA06DB0628F020E0FE
:1018400030E040E050E015C0D40112962C9130E019
:1018500040E050E0C601B5010E9436279B01AC0173
:10186000F40186A197A1A0A5B1A5280F391F4A1F91
:101870005B1FD4019A962D933D934D935C939D9756
:10188000CC24DD24BB24B39418C0B4828881998110
:101890000E94BF02892B09F079C0E881F98182A5F5
:1018A00093A5A4A5B5A50196A11DB11D82A793A7D7
:1018B000A4A7B5A70894C11CD11CE881F981828135
:1018C00090E0C816D90608F3960140E050E082A5E2
:1018D00093A5A4A5B5A5821B930BA40BB50B82A75A
:1018E00093A7A4A7B5A7EA86FB860C871D87C880A7
:1018F000D9808EEF9FEFAFEFBFEFE80EF91E0A1F02
:101900001B1FF60182899389A489B5890297A109D1
:10191000B109E816F9060A071B0728F020E030E0B5
:1019200040E050E015C0D60112962C9130E040E026
:1019300050E0C801B7010E9436279B01AC01F601B7
:1019400086A197A1A0A5B1A5280F391F4A1F5B1F2B
:101950002E873F87488B598B7D826C82F5E0440C43
:10196000551CFA95E1F78EE290E0480E591E8881E9
:101970009981840D951D9B8B8A8B20E030E008C0F7
:1019800024E030E005C022E030E002C021E030E099
:10199000C901DF91CF911F910F91FF90EF90DF90E0
:1019A000CF90BF90AF909F908F907F906F905F90FF
:1019B0004F9008952F923F924F925F926F927F9235
:1019C0008F929F92AF92BF92CF92DF92EF92FF924F
:1019D0000F931F93DF93CF9300D000D0CDB7DEB726
:1019E0009C838B83162F072F2A013A832983D901E1
:1019F0001D921C920E949F024C01009709F0F1C1B8
:101A0000EB81FC818581882319F0882E9924E9C116
:101A1000AB81BC8114968C9181FD04C077E0872E48
:101A2000912CDFC1EB81FC81268137814085518576
:101A3000C201A0E0B0E0820F931FA41FB51F821760
:101A40009307A407B50710F444245524812F902F41
:101A50009C011901A1C1AB81BC8116962D913D91CC
:101A60004D915C911997DA01C9019170A070B07025
:101A70000097A105B10509F034C1AB81BC81ED919E
:101A8000FC91DA01C90169E0B695A795979587950C
:101A90006A95D1F772807A94782209F050C02115A6
:101AA00031054105510599F4AB81BC811E962D91FC
:101AB0003D914D915C91519721153105410551059D
:101AC000C9F4CF0140E050E060E070E009C0AB81B4
:101AD000BC8152964D915D916D917C915597CF014E
:101AE0000E9478059B01AC01611571058105910586
:101AF00009F456C1213031054105510529F482E030
:101B0000EB81FC8185836DC02F3FFFEF3F07FFEF27
:101B10004F07FFEF5F0709F4D0C0EB81FC81228BF8
:101B2000338B448B558B86859785A089B189009727
:101B3000A105B10521F426873787408B518BAB81F6
:101B4000BC81ED91FC91119722A533A544A555A523
:101B50005696ED90FD900D911C9159972E153F05CD
:101B60004007510731F4CF010E94BF02892B09F0D1
:101B7000CCC0AB81BC810D911C91119752962D91D7
:101B80003D914D915C9155972250304040405040DE
:101B9000F80182899389A489B5890297A109B109BD
:101BA000281739074A075B07B8F46280662D70E092
:101BB00080E090E00E9436279B01AC01F80186A1ED
:101BC00097A1A0A5B1A5280F391F4A1F5B1F21159A
:101BD00031054105510549F482E0AB81BC81159680
:101BE0008C9332E0832E912CFCC069017A01C70CE2
:101BF000D11CE11CF11C5201AB2CBB24A694A114F6
:101C0000B10409F446C0272D30E0C501820F931FAF
:101C1000662D70E06817790718F45B01A21AB30A01
:101C2000F8018181B101A701960185010E94221B63
:101C3000892B09F042C0AB81BC81ED91FC9122A5BA
:101C400033A544A555A52C193D094E095F09C501C9
:101C5000A0E0B0E0281739074A075B07A8F499E02D
:101C6000220F331F441F551F9A95D1F7B101620F00
:101C7000731FCF018E9640E052E00E940602AB81B6
:101C8000BC81ED91FC9114828501102F0027110F6A
:101C900066C0EB81FC812681378140855185828534
:101CA0009385A485B585281739074A075B0798F0FF
:101CB000C8010E94BF02892B31F081E0AB81BC8159
:101CC00015968C9326C0AB81BC81ED91FC91C2A688
:101CD000D3A6E4A6F5A6EB81FC81C68AD78AE08E5E
:101CE000F18EAB81BC811696ED90FD900D911C910B
:101CF000199756964D915D916D917C9159978D9163
:101D00009C910E942503892B41F081E0EB81FC81AD
:101D1000858301E0802E912C64C0C701917020E082
:101D200032E0281B390B82012415350508F489019E
:101D3000AB81BC8116962D913C9117973170225D35
:101D40003F4F8D919C91820F931FB101A8010E947A
:101D50000602AB81BC81ED91FC91B1E0B483200E11
:101D6000311EC801A0E0B0E0EB81FC812681378103
:101D700040855185280F391F4A1F5B1F26833783F3
:101D800040875187E981FA8180819181800F911F7D
:101D900091838083401A510A4114510409F05BCEAB
:101DA000AB81BC8116962D913D914D915C91199717
:101DB0001A968D919D910D90BC91A02D821793073D
:101DC000A407B50730F4EB81FC8122873387448771
:101DD0005587AB81BC8114968C91149780621496C0
:101DE0008C93C4010F900F900F900F90CF91DF91C3
:101DF0001F910F91FF90EF90DF90CF90BF90AF9029
:101E00009F908F907F906F905F904F903F902F901A
:101E10000895EF92FF920F931F93DF93CF9300D01B
:101E2000CDB7DEB78C01FC014281538157FD2AC03A
:101E3000E40FF51F66837A010894E11CF11CFDE3B1
:101E4000EF16F104BCF0BC016A5F7F4FFC0180819A
:101E50009181A7019E012F5F3F4F0E94DA0C89817B
:101E60009A818E159F0521F0EE24EA94FE2C02C083
:101E7000EE24FF24F801F382E282848195810196A9
:101E8000958384830F900F90CF91DF911F910F91D5
:101E9000FF90EF9008952F923F924F925F926F9232
:101EA0007F928F929F92AF92BF92CF92DF92EF92EA
:101EB000FF920F931F93DF93CF93CDB7DEB7CC552F
:101EC000D0400FB6F894DEBF0FBECDBFE5966EAC26
:101ED0007FACE597E3968EAD9FADE3979C8B8B8BA4
:101EE0001E8A1D8A188E1F8A65E7E62EF12CEC0EDD
:101EF000FD1E5DE2252E01C07201D3016C916623A7
:101F000009F47FC10894611C711C653219F0CE017F
:101F10004396AFC0F301B1903F01F0E3BF1631F437
:101F2000D301BD903D01332433940AC0BDE2BB16FA
:101F300011F0332405C0F301B1903F0142E0342E8B
:101F40008824992417C0C40133E0880F991F3A955B
:101F5000E1F7880C991C880E991E8B2D992787FD17
:101F60009095880E991E80ED9FEF880E991ED301E3
:101F7000BD903D018B2D80538A3028F3BCE6BB1603
:101F800019F0ECE4BE1629F4F4E03F2AD301BD9029
:101F90003D01BB2009F435C18B2D81568A3110F0EB
:101FA000AB2D02C0AB2DA052AF34A1F0A0354CF444
:101FB000A33409F44DC0A43479F0A23409F056C01A
:101FC0005CC0A53549F0A83509F44EC0A33509F029
:101FD0004DC004C028E052C02AE050C002E0402EAC
:101FE000512C4E0C5F1CF701E080F18000E010E006
:101FF00002C00F5F1F4FF701E00FF11F80818823A0
:10200000C1F731FE06C014C0CE01439660E20E94C3
:10201000090F0F5F1F4FC801019788159905A0F39D
:1020200007C00894E11CF11CCE0143960E94090FE1
:10203000D7016C916623A9F707C0CE01439660E2F1
:102040000E94090F0F5F1F4F08151905B0F354CFF9
:1020500012E0412E512C4E0C5F1CCE014396F7012D
:1020600060810E94090F48CF20E108C0CE0143964D
:102070006B2D0E94090F27013FCF22E032FE0DC0D9
:10208000B4E04B2E512C4E0C5F1CF701E080F18028
:1020900002811381A43409F514C087010E5F1F4F1C
:1020A000F70160817181A43439F428017B01002794
:1020B000F7FC0095102F05C028017B0100E010E01F
:1020C0000CC017FF0AC010950095F094E094E11C35
:1020D000F11C011D111DF8E03F2ACC24DD24822FC4
:1020E00090E0A0E0B0E06D968CAF9DAFAEAFBFAF1B
:1020F0006D97C801B7016D962CAD3DAD4EAD5FAD8E
:102100006D970E946927A62EC801B7016D962CAD68
:102110003DAD4EAD5FAD6D970E946927C901DA01F3
:102120007C018D01E9E0EA153CF4F8E7BF1611F0F7
:1021300027E001C027E2A20EE3E0F0E0EC0FFD1F74
:10214000EC0DFD1D20E3A20EA0820894C11CD11C41
:102150000097A105B10521F080E1C816D10449F628
:10216000832D90E033FE0AC0E3E0F0E0EC0FFD1FAA
:10217000EC0DFD1D20820894C11CD11C80FD03C004
:10218000F0E2BF2E02C0E0E3BE2E76018C010270A9
:10219000107005C0CE0143966B2D0E94090F0115EA
:1021A000110541F40894E11CF11CC7010197881541
:1021B000990580F30894C108D10803E010E00C0FE2
:1021C0001D1F0C0D1D1D0894C11CD11C0894C108B5
:1021D000D108CE014396D8016C910E94090F01509D
:1021E0001040C114D10491F708C0CE0143966B2D65
:1021F0000E94090F0894E11CF11CE814F904A8F3EB
:102200007BCE4D895E8957FD16C08B899C89BE01A6
:10221000675E7F4F9E012F5F3F4F0E94DA0C892B34
:1022200051F42D893E8989819A812817390719F43B
:102230002F89388D02C02FEF3FEFC901C45ADF4FFD
:102240000FB6F894DEBF0FBECDBFCF91DF911F91C7
:102250000F91FF90EF90DF90CF90BF90AF909F9045
:102260008F907F906F905F904F903F902F90089548
:10227000EF92FF920F931F93DF93CF93CDB7DEB70B
:10228000C854D0400FB6F894DEBF0FBECDBF8C014E
:102290007C836B831E821D8218861F8273E0E72E6B
:1022A000F12CEC0EFD1E05C00F5F1F4FC7010E94F1
:1022B000090FF80160816623B9F74D815E8157FDF2
:1022C00016C08B819C81BE01675F7F4F9E012F5F8F
:1022D0003F4F0E94DA0C892B51F42D813E81898178
:1022E0009A812817390719F42F81388502C02FEFFA
:1022F0003FEFC901C85BDF4F0FB6F894DEBF0FBEDA
:10230000CDBFCF91DF911F910F91FF90EF90089576
:10231000DF93CF93CDB7DEB7C854D0400FB6F89453
:10232000DEBF0FBECDBF282F7C836B831E821D8234
:1023300018861F82CE010396622F0E94090F4D81DD
:102340005E8157FD16C08B819C81BE01675F7F4F08
:102350009E012F5F3F4F0E94DA0C892B51F42D8193
:102360003E8189819A812817390719F42F81388590
:1023700002C02FEF3FEFC901C85BDF4F0FB6F894E3
:10238000DEBF0FBECDBFCF91DF9108950F931F9396
:10239000CF93DF93EC010E949F029C01009709F00C
:1023A000A8C08C8185FFA5C04A8D5B8D6C8D7D8D0D
:1023B000888199810E9425039C01009709F099C0AA
:1023C000EE8DFF8D8385806283878A859B85AC85B2
:1023D000BD85848F958FA68FB78F8E859F85A889A1
:1023E000B989938F828FCD01AA27BB27958B848BC8
:1023F00080E090E0A1E2B8E4868B978BA08FB18F4C
:10240000138A128A8C818F7D8C83E881F98181E027
:1024100084830990D881C02DCE010E94BF029C0107
:10242000009709F066C08881833009F057C08D811C
:10243000813009F053C0BE01625D7F4FFB0180E037
:1024400092E001C0119201972FEF8F3F9207D1F7D1
:10245000C45DDD4F85E59AEA99838883CC52D240EA
:1024600082E592E5A1E6B1E48EA79FA7A8ABB9AB40
:10247000CE5EDD4F82E792E7A1E4B1E688839983DF
:10248000AA83BB83C251D2408E859F85A889B98912
:10249000CA5EDD4F88839983AA83BB83C651D2402D
:1024A0008A859B85AC85BD85C65EDD4F8883998313
:1024B000AA83BB83CA51D2402A8D3B8D4C8D5D8D42
:1024C0002F5F3F4F4F4F5F4F2AA73BA74CA75DA7FA
:1024D000898101E010E00E94221B1D82898160E059
:1024E00040E050E00E949E1B009711F081E090E0D8
:1024F0009C01C901DF91CF911F910F910895CF9356
:10250000DF93EC010E94C6119C01009741F4CE01BB
:102510000E949F029C01009711F419821882C90140
:10252000DF91CF9108952F923F924F925F926F92D9
:102530007F928F929F92AF92BF92CF92DF92EF9253
:10254000FF920F931F93DF93CF93CDB7DEB76A97B8
:102550000FB6F894DEBF0FBECDBF6C01CB01B42E19
:10256000D6011D921C920E946F027C0197FF03C04E
:102570002BE030E05FC2FC01EE0FFF1FE051FD4F8A
:10258000008111810115110519F42CE030E052C2CF
:10259000F60111830083D8018C91882361F0119694
:1025A0008C910E94C01A80FD06C0BB2009F43DC278
:1025B00082FD38C23AC2F8011082E1828E2D0E945B
:1025C000ED1980FF03C023E030E034C2BB2011F0DE
:1025D00082FD28C2C80140E050E060E070E00E9447
:1025E0006903813021F022243324210145C07E017A
:1025F0000894E11CF11CA7012EEB31E0225D3F4F56
:10260000F801E20FF31F2E5230408481882329F411
:1026100080E090E0A0E0B0E004C080859185A285D4
:10262000B385FA0181939193A193B193AF01205F98
:102630003F4FF1E02E3F3F0709F7B1E1CB2ED12C00
:10264000CC0EDD1ED7012D903D904D905C90211455
:1026500031044104510411F482E007C0C801B20101
:10266000A1010E946903882379F0E4E0F0E0EE0E16
:10267000FF1EEC14FD0431F7833019F421E030E043
:10268000D9C1882309F0D4C1D801D9968D919C91E4
:10269000DA978050924009F0CBC10C5B1F4FF801D4
:1026A00080819181045410404C01AA24BB248114E0
:1026B0009104A104B10449F40E5A1F4FD8018D9022
:1026C0009D90AD90BC9002551040F801868A978A83
:1026D000A08EB18E46AD4383842F8150823008F0A6
:1026E000A7C123AD2283222309F4A2C130E0C9018E
:1026F000019782239323892B09F09AC1015C1F4F14
:10270000D8016D907C900F531040F801718660865F
:10271000C3018F709070892B09F08AC10F5B1F4F26
:10272000D8018D919C91015410406C01EE24FF243E
:10273000C114D104E104F10449F4025B1F4FF80114
:10274000C080D180E280F3800E541040D801DC9626
:102750000D90BC91A02DBE8BAD8BAB2B09F468C145
:10276000242F30E040E050E0C501B4010E9436273C
:10277000698B7A8B8B8B9C8B4D895E899A0140E0AB
:1027800050E02F8B388F498F5A8FA4E0769467944E
:10279000AA95E1F74301AA24BB24820E931EA41E2E
:1027A000B51E860E971EA81EB91EC814D904EA04C9
:1027B000FB0408F43DC1C818D908EA08FB08D80191
:1027C00012962C9130E040E050E0C701B6010E9423
:1027D0006927C901DA010097A105B10509F428C1EB
:1027E000863FEFE09E07E0E0AE07E0E0BE0718F4AA
:1027F000772473940DC0863FFFEF9F07F0E0AF078B
:10280000F0E0BF0718F0F3E07F2E02C0E2E07E2E7A
:1028100072E0C72ED12CE12CF12CC80ED91EEA1E75
:10282000FB1ED8015296CD92DD92ED92FC92559707
:10283000F801228E338E448E558E8F89988DA98D06
:10284000BA8D820D931DA41DB51D868F978FA0A3F1
:10285000B1A3820C931CA41CB51C86A297A2A0A6AF
:10286000B1A620853185F3E07F16D9F4232B09F03A
:10287000DFC0065A1F4FF80180819181A281B38188
:102880000A551040F80182A393A3A4A3B5A3A701FE
:10289000960162E0220F331F441F551F6A95D1F73E
:1028A00032C0232B09F4C4C029893A894B895C8939
:1028B000820F931FA41FB51FF80182A393A3A4A3A3
:1028C000B5A3D701C601880F991FAA1FBB1FF2E04D
:1028D0007F1619F49C01AD0116C09C01AD012C0DB1
:1028E0003D1D4E1D5F1D569547953795279581E0F7
:1028F00090E0A0E0B0E0C822D922EA22FB222C0D11
:102900003D1D4E1D5F1D21503E4F4F4F5F4F89E0D3
:1029100056954795379527958A95D1F7F801868979
:102920009789A08DB18D82179307A407B50708F486
:102930007FC08FEF9FEFAFEFBFEF86879787A08BAA
:10294000B18B82879387A487B58780E88583F3E07E
:102950007F1609F057C0025A1F4FD8018D919C91E4
:102960000E551040019709F04DC00894211C311CF0
:10297000411C511CC801B201A1010E942503892BF1
:1029800009F040C0F8011582045D1D4FD8018D91FA
:102990009C910C52124085559A4AA1F5F80186A5E2
:1029A00097A5A0A9B1A982559245A146B14451F578
:1029B0000E5E1D4FF80180819181A281B381025189
:1029C000124082579247A144B146E1F40A5E1D4F7E
:1029D000F80180819181A281B38106511240F801F2
:1029E00086879787A08BB18B065E1D4FF80180818B
:1029F0009181A281B3810A511240F80182879387A5
:102A0000A487B587D8017C928091F4029091F50259
:102A100001969093F5028093F40217969C938E93FF
:102A2000169703C02AE030E005C020E030E002C085
:102A30002DE030E0C9016A960FB6F894DEBF0FBEF4
:102A4000CDBFCF91DF911F910F91FF90EF90DF905D
:102A5000CF90BF90AF909F908F907F906F905F903E
:102A60004F903F902F9008952F923F924F925F92F8
:102A70006F927F928F929F92AF92BF92CF92DF928E
:102A8000EF92FF920F931F93DF93CF93CDB7DEB7F3
:102A9000AD970FB6F894DEBF0FBECDBF9DA78CA734
:102AA0007CA36BA3892B29F489E090E09FA38EA3DC
:102AB000C6C2ACA5BDA51D921C92B42FBF71BDA30B
:102AC0004E71CE010D96BE016D5D7F4F0E94931237
:102AD0009FA38EA3892B09F0B2C2CE0101969AA3BF
:102AE00089A30BA11CA1F80180818F3211F08C35D4
:102AF00011F40F5F1F4F1B8A1C8A1D8A1E8AD80182
:102B00008C91803268F4CE010D9660E070E00E94F6
:102B100055088C0118A21F8EFDC00F5F1F4F09C002
:102B2000F0E28F2EEDE0AE2EB12CAC0EBD1E75E0A6
:102B3000972EF80180818F3281F38C3571F3E9A0F3
:102B4000FAA0F7018BE090E001C0819201972FEF8E
:102B50008F3F9207D1F730E0A8E0B0E0CC24DD242D
:102B600040E050E0F801EC0DFD1D20810894C11CEF
:102B7000D11C2132E8F12F3209F4AEC22C3509F410
:102B8000ABC22E3219F04A175B0768F0189709F0AC
:102B9000BAC02E3209F0B7C0330F330FABE0B0E04C
:102BA00048E050E0DFCF27FDAEC0622F70E0E6E0E6
:102BB000F1E001C031968081882339F0992787FDA3
:102BC000909586179707B1F79EC0822F81548A315E
:102BD00010F4326006C0822F81568A3110F43160C1
:102BE0002052F701E40FF51F20834F5F5F4FBACFEC
:102BF00064E0452B09F487C0F7018081853E09F424
:102C00009082189711F4330F330F232F30E0C9014E
:102C100083709070019709F460612C7030702430DB
:102C2000310509F46860D7011B966C93C50160E01B
:102C300070E00E945508AC01009779F54B8D5C8DD2
:102C40006D8D7E8D8D859E850E942503AC0100973C
:102C500021F5EF8DF8A18081882319F444E050E03C
:102C60001CC0838583FD13C089A19AA19C01D90151
:102C70002BE030E0215030408FEF2F3F380769F0D4
:102C800090818C91981719F431961196F3CFC50164
:102C900060E070E00E94570BCECFE9A1FAA18385D6
:102CA0004115510539F08A014430510579F582FF0B
:102CB0002FC030C082FD2AC0AF8DB8A11B968C9169
:102CC0001B9784FF25C05A968D919C915B979C0120
:102CD00040E050E0ED85FE858081833069F45496B4
:102CE0008D919C915597A0E0B0E0DC019927882751
:102CF000282B392B4A2B5B2B0C0D1D1D2B8B3C8B52
:102D00004D8B5E8B16CF06E010E004C08A0102C036
:102D100005E010E02F8C38A00115110529F42114CD
:102D2000310411F406E010E09DA1292F30E0C90123
:102D30008C719070892B09F411C10115110509F4EA
:102D400054C00430110509F046C03DE0E32EF12CDB
:102D5000EC0EFD1EC70160E070E00E9455088C017A
:102D60000097E1F44B8D5C8D6D8D7E8D8D859E85FC
:102D70000E9425038C01009789F4EF8DF8A1E08172
:102D8000E53E09F49CC1EE2309F499C1C70161E055
:102D900070E00E94570B8C01009721F3043011055D
:102DA000D1F407E010E017C0EF8DF8A180E290E0C9
:102DB00001C011920197AFEF8F3F9A07D1F769A138
:102DC0007AA18F8D98A14BE050E00E940602ED851C
:102DD000FE8581E084832F8C38A00115110509F050
:102DE0006BC1BDA1B860BDA307C0F101838581712E
:102DF00009F060C122FD3EC1FDA1F3FFBFC080E02C
:102E000090E0A1E2B8E4F10186879787A08BB18BAF
:102E1000868B978BA08FB18F1386D1015C961D9204
:102E20001D921D921C925F974D845E847A965A96ED
:102E30008D919C915B975C01CC24DD24D2018C9117
:102E4000833071F4D10154968D919C915597A0E0F7
:102E5000B0E0DC0199278827A82AB92ACA2ADB2AE8
:102E600011821082F101158A148A81E0D201149630
:102E70008C931497A114B104C104D10409F47EC049
:102E80009A968D919D910D90BC91A02D88A799A7A0
:102E9000AAA7BBA7B2E0AB16B104C104D10408F4E1
:102EA000EFC0F20182899389A489B589A816B90671
:102EB000CA06DB0608F0E4C08601750143C0C20102
:102EC000B801A7010E94A5043B014C0161157105E1
:102ED0008105910509F4D7C061307105810591051F
:102EE00009F4CEC06F3F2FEF72072FEF82072FEF4D
:102EF000920709F4C2C0C201B801A70100E010E0C6
:102F000020E030E00E94A9038C01009709F0D4C0B2
:102F1000F20186859785A089B1898F3FFFEF9F07D2
:102F2000FFEFAF07FFEFBF0759F00196A11DB11DDD
:102F3000F20186879787A08BB18B8581816085831D
:102F400084017301F20182899389A489B589E81605
:102F5000F9060A071B0708F4B2CF95C00115110541
:102F600009F0AAC0D1011B968C9184FF03C004E034
:102F700010E0A2C021FF02C080FD9CC0BDA1B3FF34
:102F800002C0B062BDA3ED85FE8522A533A544A590
:102F900055A5ACA5BDA55A962D933D934D935C9335
:102FA0005D975F963C922E925E972DA114962C937E
:102FB000149715961C92D1015A968D919C915B970E
:102FC0009C0140E050E08081833069F454968D91FB
:102FD0009C915597A0E0B0E0DC0199278827282B29
:102FE000392B4A2B5B2BACA5BDA51E962D933D938B
:102FF0004D935C935197D1015C962D913D914D91EC
:103000005C915F97ACA5BDA51A962D933D934D930A
:103010005C931D9716961D921D921D921C921997F6
:1030200056961D921D921D921C9259971196FC93D3
:10303000EE938681978113969C938E9312978EA11F
:103040009FA1AD960FB6F894DEBF0FBECDBFCF9156
:10305000DF911F910F91FF90EF90DF90CF90BF9085
:10306000AF909F908F907F906F905F904F903F9028
:103070002F90089508E010E01FC001E010E01CC090
:1030800002E010E019C0ED85FE850894A108B108A2
:10309000C108D108A286B386C486D586CF0148A5CB
:1030A00059A56AA57BA50E9425038C01009709F408
:1030B00065CF02C007E010E01FA30EA3C0CF4B8D69
:1030C0005C8D6D8D7E8D8D859E850E9425038C0186
:1030D000009709F469CE7FCE60E08BCD1F93DF931C
:1030E000CF9300D000D000D0CDB7DEB79C838B83C8
:1030F0007E836D83142F7A836983CE0101960E94AB
:103100006F02DC0197FF03C02BE030E026C0FC011A
:10311000EE0FFF1FE051FD4F0190F081E02D309741
:1031200009F01082EB81FC81309709F01082AA0F20
:10313000BB1FA051BD4FED93FC93EF2B61F01130FD
:1031400051F4CE010396BE016B5F7F4F40E00E94B9
:1031500093129C0102C020E030E0C90126960FB610
:10316000F894DEBF0FBECDBFCF91DF911F910895C0
:103170001CBC209884B1897784B985B1897F85B9D1
:103180002F9A08956AE070E00E9455276093F70235
:103190002FEF2EBD0DB407FEFDCF9EB59F3F21F052
:1031A0008091F7028823A9F720E030E09F3F11F4D7
:1031B00021E030E0C90108952F988FEF8EBD0DB446
:1031C00007FEFDCF8EB584EF91E00E94C218892BD7
:1031D00019F021E030E009C02F9A8FEF8EBD0DB4B9
:1031E00007FEFDCF8EB520E030E0C9010895FC0157
:1031F00084E18093F6029FEF9EBD0DB407FEFDCFE4
:103200008EB58F3F29F48091F6028823A9F723C059
:103210008E3F09F59FEF9EBD0DB407FEFDCF8EB525
:1032200080839EBD0DB407FEFDCF8EB581836250B5
:10323000704011F03296EFCF8FEF8EBD0DB407FEC8
:10324000FDCF8EB58FEF8EBD0DB407FEFDCF8EB5D1
:1032500021E030E002C020E030E0C90108951F9372
:10326000CF93DF93EC01162F84EF91E00E94C218F8
:10327000892B19F420E030E036C01EBD0DB407FEE6
:10328000FDCF8EB51D3F19F421E030E02CC020E0C9
:1032900032E088818EBD0DB407FEFDCF89818EBDE1
:1032A0000DB407FEFDCF2250304011F02296F1CF31
:1032B0008FEF8EBD0DB407FEFDCF8EB58FEF8EBDA7
:1032C0000DB407FEFDCF8EB58FEF8EBD0DB407FE9A
:1032D000FDCF8EB590E08F71853009F091E081E0EF
:1032E0009827292F30E0C901DF91CF911F910895D0
:1032F000DF92EF92FF920F931F93D82E7A018B01EA
:1033000087FF0CC087E340E050E060E070E00E947F
:103310007819823008F05BC08FE7D8228CE0D8168D
:1033200069F02F9A8FEF8EBD0DB407FEFDCF8EB5DD
:103330000E94DC18892B11F48FEF49C08D2D806419
:103340008EBD0DB407FEFDCF8EB5812F9927AA271C
:10335000BB278EBD0DB407FEFDCF8EB5C801AA27D1
:10336000BB278EBD0DB407FEFDCF8EB5BB27A12FA9
:10337000902F8F2D8EBD0DB407FEFDCF8EB5EEBC08
:103380000DB407FEFDCF8EB5DD2011F485E906C032
:1033900088E0D81611F487E801C081E08EBD0DB435
:1033A00007FEFDCF8EB58CE0D81631F48FEF8EBDC1
:1033B0000DB407FEFDCF8EB59AE02FEF2EBD0DB4F4
:1033C00007FEFDCF8EB587FF02C09150B9F71F9160
:1033D0000F91FF90EF90DF900895EF92FF920F937F
:1033E0001F93DF93CF9300D000D0CDB7DEB78823F3
:1033F00011F081E0BAC00E94B8188091150181FDDA
:10340000B2C0209A85B1826885B984B1866884B9D2
:1034100092E59CBD81E08DBD9CBD8AE09FEF9EBD85
:103420000DB407FEFDCF2EB58150C9F740E050E046
:1034300060E070E00E947819813009F07EC084E677
:103440008093F60288E04AEA51E060E070E00E9472
:103450007819813009F04AC07E010894E11CF11C02
:1034600087019FEF9E012B5F3F4F9EBD0DB407FE6E
:10347000FDCF8EB5F80181938F01E217F307A9F70D
:103480008B81813009F059C08C818A3A09F055C08E
:103490008091F602882349F089EA40E050E060E03C
:1034A00070E40E947819882399F78091F6028823A6
:1034B00009F443C08AE340E050E060E070E00E941D
:1034C00078198823D1F59FEF9EBD0DB407FEFDCF7F
:1034D0008EB5F70181937F01E017F107A9F7898184
:1034E00086FD02C014E02AC01CE028C089EA40E042
:1034F00050E060E070E00E947819823018F001E03E
:1035000011E002C009EA12E08091F602882349F036
:10351000802F40E050E060E070E00E94781988233E
:1035200099F78091F602882341F080E140E052E073
:1035300060E070E00E947819811110E01093F802A9
:103540002F9A8FEF8EBD0DB407FEFDCF8EB51123E0
:1035500041F0809115018E7F8093150180E58CBD2F
:1035600002C00E94B818809115010F900F900F9023
:103570000F90CF91DF911F910F91FF90EF900895E1
:10358000882311F081E00895809115010895FF923C
:103590000F931F93CF93DF93EB01882309F049C06A
:1035A0000115110509F445C08091150180FF03C084
:1035B00003E010E040C08091F80283FD07C0E9E01D
:1035C000220F331F441F551FEA95D1F70230110512
:1035D00018F471E1F72E02C062E1F62E8F2DBA01C8
:1035E000A9010E9478198823B9F4CE0160E072E045
:1035F0000E94F718892B31F00150104019F0C0508B
:10360000DE4FF3CF82E1F81639F48CE040E050E071
:1036100060E070E00E9478192F9A8FEF8EBD0DB494
:1036200007FEFDCF8EB50115110529F001E010E070
:1036300002C004E010E0C801DF91CF911F910F910B
:10364000FF900895CF92DF92EF92FF920F931F9316
:10365000CF93DF93EB0169017A01882309F062C0FF
:103660000115110509F45EC08091150180FF03C0AA
:1036700003E010E059C08091150182FF03C002E011
:1036800010E052C08091F80290E083FD07C0F9E09D
:10369000CC0CDD1CEE1CFF1CFA95D1F70130110596
:1036A00071F488E1B701A6010E947819882369F5B1
:1036B000CE016EEF0E942F1900E010E022C086704C
:1036C0009070892B31F0A80160E070E087E90E94DA
:1036D000781989E1B701A6010E9478198823A9F415
:1036E000CE016CEF0E942F19892B31F00150104050
:1036F00019F0C050DE4FF4CF80E090E06DEF0E94F3
:103700002F19892B11F401E010E02F9A8FEF8EBD55
:103710000DB407FEFDCF8EB50115110529F001E0AE
:1037200010E002C004E010E0C801DF91CF911F91CA
:103730000F91FF90EF90DF90CF900895FF920F933D
:103740001F93DF93CF93CDB7DEB760970FB6F89492
:10375000DEBF0FBECDBF8A01882319F024E030E020
:1037600083C18091150180FF03C023E030E07CC15C
:10377000623309F41FC1633350F46130D1F061301A
:10378000A8F0633009F485C0673069F45CC1643324
:1037900009F42BC1643308F414C1653309F427C15B
:1037A000663309F43DC124E030E057C10E94DC18C3
:1037B00017C189E040E050E060E070E00E947819B5
:1037C000882309F048C1CE01019660E170E00E94B3
:1037D000F718892B09F43FC18981829586958695D2
:1037E0008370288569857A85813001F530E040E075
:1037F00050E02F73307040705070A901332722279A
:103800002F5F3F4F4F4F5F4F962F80E0870F911DE7
:10381000A0E0B0E0280F391F4A1F5B1FFAE0220F1B
:10382000331F441F551FFA95D1F72DC06295669539
:103830006695637030E0220F331F220F331F260F6F
:10384000311D2F5F3F4F8F8190E083709070982FD4
:103850008827990F990F280F391F40E050E08E817B
:103860008F706B85661F6627661F860F8E5F73706D
:10387000770F870F90E0099704C0220F331F441F72
:10388000551F8A95D2F7F8012083318342835383F1
:1038900095C08091F802F82E82FF31C08DE840E09B
:1038A00050E060E070E00E947819882309F0D3C0EE
:1038B0008FEF8EBD0DB407FEFDCF8EB5CE01019604
:1038C00060E170E00E94F718892B09F4C4C080E31E
:1038D0009FEF9EBD0DB407FEFDCF2EB58150C9F7F9
:1038E0002B8522952F7080E190E0A0E0B0E004C02D
:1038F000880F991FAA1FBB1F2A95D2F755C089E0D0
:1039000040E050E060E070E00E947819882309F000
:10391000A2C0CE01019660E170E00E94F718892BE9
:1039200009F499C04B858C85F1FE1BC0881F882740
:10393000881F90E00196242F30E02F733070220F03
:10394000331F820F931F2E8522952695269523706F
:1039500030E02150304002C0880F991F2A95E2F7CD
:1039600021C0282F30E023703070B3E0220F331FC6
:10397000BA95E1F7829586958770280F311D2F5FE4
:103980003F4F842F90E08C77907095958795959513
:1039900087950196AC01249FC001259F900D349F0F
:1039A000900D1124A0E0B0E0F80180839183A28300
:1039B000B38304C08091F802FA01808320E030E0F4
:1039C0004CC089E040E050E060E070E00E9478196F
:1039D000882309F040C0C80160E170E00E94F71838
:1039E00020E030E0892BC9F536C08AE0EBCF8AE3CE
:1039F00040E050E060E070E00E947819882359F5BB
:103A0000F8019FEF98012D5F3F4F9EBD0DB407FE5B
:103A1000FDCF8EB58083E217F30781F23196F5CFA3
:103A20008DE840E050E060E070E00E947819882363
:103A300091F48FEF8EBD0DB407FEFDCF8EB5C8019A
:103A400060E470E0CBCF0E94B818809115018160CE
:103A500080931501B3CF21E030E02F9A8FEF8EBD18
:103A60000DB407FEFDCF8EB5C90160960FB6F89470
:103A7000DEBF0FBECDBFCF91DF911F910F91FF90A1
:103A800008958091F602882319F081508093F60200
:103A90008091F702882319F081508093F70280917A
:103AA0001501897F80931501089581E08093D700E7
:103AB00080EA8093D80082E189BD09B400FEFDCF81
:103AC00080E98093D8001092E0001092F9021092E1
:103AD000FA028CE08093E200789408958091F902D4
:103AE00008952FB7F8948091F902882369F083E054
:103AF0008093E9009BE68091E80085FD09C082FF84
:103B000003C09093E800F7CF2FBF2FEF3FEF0CC01B
:103B10009091F1008091E80085FD03C08BE68093D1
:103B2000E8002FBF292F30E0C90108952FB7F8947E
:103B30008091F902882311F490E010C083E0809313
:103B4000E9009091F200992349F48091E80082FF06
:103B500005C085FD03C08BE68093E8002FBF892F49
:103B600008958091F902882371F09FB7F89483E05B
:103B70008093E9002BE602C02093E8008091E800E2
:103B800085FDFACF9FBF0895482F8091F9028823C1
:103B9000D9F12FB7F89484E08093E9008091FC027A
:103BA000882341F08091E80085FD02C02FBF12C03C
:103BB0001092FC029091E400975E34E08091E8005E
:103BC00085FD13C02FBF8091E400891729F481E09F
:103BD0008093FC028FEF08958091F9028823A1F071
:103BE0002FB7F8943093E900E9CF4093F10080912A
:103BF000E80085FD03C08AE38093E80085E08093B8
:103C0000FB022FBF80E008958FEF0895282F809149
:103C1000F902882351F09FB7F89484E08093E9007B
:103C20008091E80085FD03C09FBF8FEF089520932A
:103C3000F1008091E80085FD03C08AE38093E800ED
:103C400085E08093FB029FBF80E00895CF93DF93D0
:103C5000EC018091F902882309F41CC13FB7F89464
:103C600084E08093E9008091FC02882309F408C174
:103C70008091E80085FD02C03FBF0CC11092FC029C
:103C8000FFC09091E400975E8091E80085FD13C02D
:103C90003FBF8091E400891721F481E08093FC020A
:103CA000F9C08091F902882309F4F4C03FB7F89471
:103CB000B093E900E9CF8091F200242F281B822FD6
:103CC00090E06817790708F4262F822F90E081345E
:103CD000910508F0C6C08A5A9F4FFC01EE0FFF1FE6
:103CE0000590F491E02D099489918093F1008991D8
:103CF0008093F10089918093F10089918093F10084
:103D000089918093F10089918093F100899180934A
:103D1000F10089918093F10089918093F10089915C
:103D20008093F10089918093F10089918093F10053
:103D300089918093F10089918093F100899180931A
:103D4000F10089918093F10089918093F10089912C
:103D50008093F10089918093F10089918093F10023
:103D600089918093F10089918093F10089918093EA
:103D7000F10089918093F10089918093F1008991FC
:103D80008093F10089918093F10089918093F100F3
:103D900089918093F10089918093F10089918093BA
:103DA000F10089918093F10089918093F1008991CC
:103DB0008093F10089918093F10089918093F100C3
:103DC00089918093F10089918093F100899180938A
:103DD000F10089918093F10089918093F10089919C
:103DE0008093F10089918093F10089918093F10093
:103DF00089918093F10089918093F100899180935A
:103E0000F10089918093F10089918093F10089916B
:103E10008093F10089918093F10089918093F10062
:103E200089918093F10089918093F1008991809329
:103E3000F10089918093F10089918093F10089913B
:103E40008093F10089918093F10089918093F10032
:103E500089918093F10089918093F10089918093F9
:103E6000F10089918093F1008091E80085FD02C006
:103E70005093E800621B7109A093FB023FBF04C08E
:103E8000B4E040E45AE3A5E06115710509F0F9CE0C
:103E900080E001C08FEFDF91CF9108959FB7F89434
:103EA0008091FB02882341F084E08093E9008AE35B
:103EB0008093E8001092FB029FBF08956091160165
:103EC00070911701809118019091190108958091C6
:103ED0001A01089580911B01089580911C01089595
:103EE0008091FA020895282F9FB7F8948091F902E3
:103EF000882339F082E08093E9008091E80085FD15
:103F000003C09FBF8FEF089581EA8093F10080E2A4
:103F10008093F1001092F1001092F1001092F100E4
:103F20001092F10081E08093F1001092F100209353
:103F3000F1008AE38093E8009FBF80E008951F921C
:103F40000F920FB60F9211248F939F938091E100EF
:103F50001092E100982F83FF11C01092E90081E0D8
:103F60008093EB001092EC0082E18093ED0088E0FA
:103F70008093F0001092F9021092FA0292FF13C09F
:103F80008091F902882379F08091FB02882359F00F
:103F900081508093FB02882331F484E08093E90010
:103FA0008AE38093E8009F918F910F900FBE0F904E
:103FB0001F9018951F920F920FB60F9211240F9316
:103FC0001F932F933F934F935F936F937F938F93A1
:103FD0009F93AF93BF93EF93FF931092E90080916B
:103FE000E80083FF3CC14091F1003091F1008091E5
:103FF000F100682F70E02091F100922F80E0682B93
:10400000792B8091F100A82FB0E02091F100922F40
:1040100080E0A82BB92B1091F1000091F10082EF04
:104020008093E800363009F05AC025E331E0A90159
:1040300045505040F901379785919491861797071D
:1040400001F5FA01859194918A179B07D1F49A01A1
:104050002E5F3F4FF901659174912E5F3F4FF9013B
:104060004491212F30E0902F80E0282B392B2F3FD7
:10407000310519F010F02FEF30E0241758F4422FDB
:1040800009C0295F3F4F495F5F4FF1E02F353F0780
:1040900089F6E5C05EEF8091E800282F30E0C90185
:1040A00085709070892BB9F322FDDCC0342F41312B
:1040B00008F030E1232FCB0106C0FC010196E4910A
:1040C000E093F10021502223C1F7630F711D431BC0
:1040D0005093E8004423F9F63031E9F2C3C035309B
:1040E00061F48EEF8093E8008091E80080FFFCCFC0
:1040F000862F80688093E300B5C0393051F54423A2
:1041000009F0ADC06093F9021092FA021092FB021E
:104110008EEF8093E80088E591E021E02093E900AC
:10412000FC010196E491E093EB00EE2369F0AC0111
:104130004F5F5F4FFC0184918093EC00CA010196B0
:10414000FA0134913093ED002F5F253039F78EE17D
:1041500081C0383061F4403809F081C08091E800B6
:1041600080FFFCCF8091F9028093F10050C0313282
:1041700089F4413A09F073C08091E80080FFFCCFD8
:10418000E6E1F1E081918093F10081E0ED31F80703
:10419000C9F73DC03032A1F4413209F060C08091CE
:1041A000E80082FFFCCFE6E1F1E08091F10081932D
:1041B00081E0ED31F807C9F78BEF8093E80027C065
:1041C000323251F4413209F04AC06093FA028091D0
:1041D000E80080FFFCCF1BC03323E9F48091E800A6
:1041E00080FFFCCF423811F080E00DC0A093E900C1
:1041F0008091EB0090E025E0969587952A95E1F770
:1042000081701092E9008093F1001092F1008EEF1E
:104210008093E80027C0313011F0333001F542308F
:10422000F1F4672BE1F42A2F2F77822F815084300D
:10423000B0F48EEF8093E8002093E900333079F0FA
:1042400089E18093EB0081E090E002C0880F991F24
:104250002A95E2F78093EA001092EA0003C081E217
:104260008093EB00FF91EF91BF91AF919F918F9160
:104270007F916F915F914F913F912F911F910F917E
:104280000F900FBE0F901F9018958AE682BF089579
:10429000E1E6F0E080E880831082089580B38F70BB
:1042A00080BB8AB180678AB98BB18F708BB9089552
:1042B000269AE2E7F0E0808180648083E0ECF0E021
:1042C0008081826C80838FEF8093CF001092BF003B
:1042D0001092BE000895E1E7F0E080818160808364
:1042E00081E08093910008958091020390910303EF
:1042F000A0910403B091050380509240A040B040CB
:10430000A8F08091020390910303A0910403B0915F
:10431000050380509240A040B040809302039093E8
:104320000303A0930403B093050314C08091020318
:1043300090910303A0910403B091050390930703A8
:104340008093060310920203109203031092040359
:10435000109205038091020390910303A09104033E
:10436000B09105030097A105B10521F481E0809388
:104370000103089581E090E0909300038093FF0291
:1043800008951F920F920FB60F9211248F939F934F
:10439000809118078093160780911707809318075C
:1043A0008FB1809580931707909117078091180718
:1043B000981751F49091170780911607981721F4D8
:1043C00081E08093080302C0109208039F918F91AF
:1043D0000F900FBE0F901F9018951F920F920FB65F
:1043E0000F9211242F933F934F935F936F937F937B
:1043F0008F939F93AF93BF93EF93FF930E949C0182
:1044000090E09093BF008093BE0085B190E489272F
:1044100085B9FF91EF91BF91AF919F918F917F915E
:104420006F915F914F913F912F910F900FBE0F9021
:104430001F9018950E946401109200031092FF02D1
:104440000E94F52560930203709303038093040395
:10445000909305030E94E50160E072E00E949724BA
:104460000E94E50160E072E00E94972480910203BF
:1044700090910303A0910403B091050380509440F0
:10448000A040B0408093020390930303A0930403E1
:10449000B0930503E1ECF0E08081866080838DE1DC
:1044A00091E00E94A02708950E94640181E391E0B9
:1044B0009093FE028093FD02109200031092FF027F
:1044C0000E9412260E94220108958091FD0290917F
:1044D000FE0201979093FE028093FD028091FD02FF
:1044E0009091FE02892B31F40E94260181E0809395
:1044F0000103089581E090E0909300038093FF0210
:104500000895F894E1E6F0E080E8808310820E944C
:104510004E210E945821E1E7F0E080818160808394
:1045200081E0809391008AE682BF0E947F230E94EF
:10453000962385E692E264E771E20E944F010E94B1
:104540001B0178940E9437260895DF92EF92FF9224
:104550000F931F93CF93DF930E94812210E000E01E
:1045600090E020E0C1E0D0E0DD24D39402C02F2D04
:104570009E2D80910803882311F00091170730E2E7
:10458000E32EE02280E1F82EF022992319F040E09A
:1045900050E006C040E050E0EE2011F041E050E075
:1045A000222319F020E030E006C020E030E0FF20B8
:1045B00011F021E030E0113031F1113020F01230F3
:1045C00009F094C04FC05E9A8BB18F7C8BB97D9BF4
:1045D00004C07C9B02C0D0927601442341F08091BC
:1045E0007601882321F00E94542211E0C0CF2223BB
:1045F00009F4BDCF80917601882309F4B8CF0E94D9
:104600001A2212E0B4CF5D9A8BB18F7A8BB91092D7
:1046100076017E9906C010937601D093FE02C09376
:10462000FD028091FF0290910003892B59F01092B6
:1046300000031092FF020E94C40160E072E00E9439
:10464000442595CF80910103882309F490CF1092DF
:1046500001030E94C40160E072E00E9444250E94B0
:1046600016273EC05C9A8BB18F798BB91092760178
:104670007E990AC0D0927601109202031092030331
:1046800010920403109205038091FF0290910003A1
:10469000892B79F0109200031092FF020E94E5012D
:1046A00060E072E00E94972487E391E00E94A027D7
:1046B0005ECF80910103882309F459CF1092010342
:1046C0000E94E50160910603709107030E94972400
:1046D0000E9416271092C1001092BF001092BE00D7
:1046E00081E391E00E94A02710E041CF82E491E0B5
:1046F000F9CF0E94961D08950E946E1D08950E9494
:10470000551D87E791E090939409809393099093C6
:1047100096098093950908950E94961D8823E1F3D8
:104720000E94711D08950E94C41D089580E887BDF0
:1047300082E084BD80936E0085BD579A08951F92D4
:104740000F920FB60F9211242F933F934F935F93C5
:104750006F937F938F939F93AF93BF93EF93FF9349
:104760008091850181508093850180918501882306
:1047700029F48CE9809385010E94411D8091860176
:104780009091870101979093870180938601809192
:10479000860190918701892B49F485E89EE19093E9
:1047A0008701809386018BB180588BB9FF91EF917F
:1047B000BF91AF919F918F917F916F915F914F9139
:1047C0003F912F910F900FBE0F901F901895DC0115
:1047D000FB0180818C93818111968C93119782814A
:1047E00012968C931297838113968C9308957F92DF
:1047F0008F929F92AF92BF92CF92DF92EF92FF92F1
:104800000F931F936B017C01742EB22E97E6892EB5
:1048100099E0992E82E58093670989E4809368097D
:1048200086E48093690980936A0910926B0910925B
:104830006C0910926D0910926E0987E580936F09DB
:1048400081E48093700986E58093710985E4809303
:10485000720986E6809373098DE68093740984E774
:10486000A82EA092750980E28093760980E190E0FD
:10487000A0E0B0E08093770990937809A09379093C
:10488000B0937A0981E090E090937C0980937B0952
:1048900020937D09F401178AC0927F09D092800984
:1048A000E0928109F0928209042F069506950695FB
:1048B000622F70E080E090E0202F30E040E050E098
:1048C0000E943627A70196010E943627609383092C
:1048D0007093840980938509909386090B9D8001CC
:1048E0001124109388090093870970928909F401B3
:1048F00013A284E680938B0981E680938C09A092B1
:104900008D0980938E0910928F0910929009109250
:104910009109109292091F910F91FF90EF90DF90F3
:10492000CF90BF90AF909F908F907F9008950F93FE
:104930001F93DF93CF9300D0CDB7DEB79C018B01DF
:1049400087E499E0B901A8019E012F5F3F4F0E94C3
:104950004E099C010097A1F000D000D088E891E0BA
:10496000ADB7BEB712969C938E93119714963C9355
:104970002E9313970E948B270F900F900F900F90FC
:1049800029813A8120173107E1F000D000D000D012
:10499000EDB7FEB7319689EA91E0ADB7BEB7129692
:1049A0009C938E93119733832283158304830E94F3
:1049B0008B27EDB7FEB736960FB6F894FEBF0FBE45
:1049C000EDBF0F900F90CF91DF911F910F91089540
:1049D0000F931F93DF93CF9300D0CDB7DEB787E45B
:1049E00099E067E679E04CE250E09E012F5F3F4F8F
:1049F0000E944E098C01009781F000D000D08FEC0E
:104A000091E0EDB7FEB792838183148303830E9404
:104A10008B270F900F900F900F9029813A812C32A5
:104A2000310581F000D000D08FEE91E0EDB7FEB7F8
:104A300092838183348323830E948B270F900F906E
:104A40000F900F9020E030E089819A818C9711F0CF
:104A500021E030E0202B312B232B29F020E030E027
:104A600040E050E008C020918F09309190094091BA
:104A7000910950919209B901CA010F900F90CF91FD
:104A8000DF911F910F9108950F931F93DF93CF93A1
:104A900000D0CDB7DEB79C018B0187E499E0B90166
:104AA000A8019E012F5F3F4F0E94DA0C9C010097E6
:104AB000A1F000D000D088E891E0ADB7BEB7129663
:104AC0009C938E93119714963C932E9313970E9468
:104AD0008B270F900F900F900F9029813A8120170C
:104AE0003107E1F000D000D000D0EDB7FEB731962D
:104AF00089EA91E0ADB7BEB712969C938E93119759
:104B000033832283158304830E948B27EDB7FEB77E
:104B100036960FB6F894FEBF0FBEEDBF2091090385
:104B200030910A0340910B0350910C0389819A81C3
:104B3000A0E0B0E0820F931FA41FB51F809309036C
:104B400090930A03A0930B03B0930C030F900F9064
:104B5000CF91DF911F910F910895DF93CF9300D0F4
:104B6000CDB7DEB769E07DE380E090E048E021E08A
:104B70000E94F72387E499E067E679E04CE250E091
:104B80009E012F5F3F4F0E94DA0C9C01009781F03D
:104B900000D000D088E891E0EDB7FEB79283818322
:104BA000348323830E948B270F900F900F900F90D8
:104BB00029813A812C32310581F000D000D085E185
:104BC00092E0EDB7FEB792838183348323830E9402
:104BD0008B270F900F900F900F9081E080930D0323
:104BE0000F900F90CF91DF91089587E499E06BE3E8
:104BF00072E041E00E9434159C01009781F000D0E2
:104C000000D086E492E0EDB7FEB7928381833483CF
:104C100023830E948B270F900F900F900F900E947C
:104C2000E824089587E499E06BE372E04BE00E948A
:104C300034159C01009781F000D000D086E492E00A
:104C4000EDB7FEB792838183348323830E948B2741
:104C50000F900F900F900F900E94AD2510920903B6
:104C600010920A0310920B0310920C03089589E12D
:104C700097E066E672E041E00E946E189C010097A2
:104C800081F000D000D088E692E0EDB7FEB79283C5
:104C90008183348323830E948B270F900F900F9082
:104CA0000F900895DF93CF93CDB7DEB72A970FB655
:104CB000F894DEBF0FBECDBF8091090390910A0327
:104CC000A0910B03B0910C038B839C83AD83BE83B7
:104CD0008496A11DB11D8F839887A987BA8787E421
:104CE00099E044E050E060E070E00E9462069C01C0
:104CF000009781F000D000D089E892E0EDB7FEB7D0
:104D000092838183348323830E948B270F900F909B
:104D10000F900F9087E499E0BE01695F7F4F44E0F8
:104D200050E09E012F5F3F4F0E94DA0C9C010097DC
:104D300081F000D000D088E891E0EDB7FEB7928313
:104D40008183348323830E948B270F900F900F90D1
:104D50000F9029813A812430310581F000D000D0B4
:104D60008AEA92E0EDB7FEB792838183348323838E
:104D70000E948B270F900F900F900F9087E499E07F
:104D800048E250E060E070E00E9462069C010097FB
:104D900081F000D000D089E892E0EDB7FEB79283B1
:104DA0008183348323830E948B270F900F900F9071
:104DB0000F9087E499E0BE016D5F7F4F44E050E0C3
:104DC0009E012F5F3F4F0E94DA0C9C01009781F0FB
:104DD00000D000D088E891E0EDB7FEB792838183E0
:104DE000348323830E948B270F900F900F900F9096
:104DF00029813A812430310581F000D000D08AEA3F
:104E000092E0EDB7FEB792838183348323830E94BF
:104E10008B270F900F900F900F902A960FB6F89453
:104E2000DEBF0FBECDBFCF91DF91089580910D03FE
:104E3000882321F010920D030E94522687E499E006
:104E40000E947F129C01009781F000D000D08FEC6F
:104E500092E0EDB7FEB792838183348323830E946F
:104E60008B270F900F900F900F900895629FD001A5
:104E7000739FF001829FE00DF11D649FE00DF11D15
:104E8000929FF00D839FF00D749FF00D659FF00DC4
:104E90009927729FB00DE11DF91F639FB00DE11DB1
:104EA000F91FBD01CF0111240895AA1BBB1B51E1BD
:104EB00007C0AA1FBB1FA617B70710F0A61BB70B8A
:104EC000881F991F5A95A9F780959095BC01CD012F
:104ED0000895A1E21A2EAA1BBB1BFD010DC0AA1F3B
:104EE000BB1FEE1FFF1FA217B307E407F50720F053
:104EF000A21BB30BE40BF50B661F771F881F991FCE
:104F00001A9469F760957095809590959B01AC0116
:104F1000BD01CF010895A0E0B0E0E1E9F7E20C9413
:104F2000622AFE0135966191719180919509909167
:104F30009609AF010E94D5272096E2E00C947E2AC4
:104F40000F931F93CF93DF938C01E0919509F0911C
:104F50009609838181FF21C0C0E0D0E00DC0E091BF
:104F60009509F091960920853185BF01F9010995D0
:104F7000892B11F0CFEFDFEFF80181918F018823AA
:104F800071F7E0919509F0919609208531858AE0C5
:104F9000BF01F9010995892B11F0CFEFDFEFCE01A9
:104FA000DF91CF911F910F910895ABE0B0E0EBED51
:104FB000F7E20C94522A3C012B015A01FC011782A2
:104FC0001682838181FD03C06FEF7FEFC6C19AE037
:104FD000892E1E010894211C311CF3012381F2014A
:104FE00023FD859123FF81912F01882309F4B2C10C
:104FF000853239F423FD859123FF81912F0185327C
:1050000029F490E0B3010E94C829E7CF982FFF242C
:10501000EE249924FFE1FF15D0F09B3269F09C3219
:1050200028F4903259F0933291F40EC09D3249F039
:10503000903369F441E024C052E0F52A84E0F82A74
:1050400028C098E0F92A25C0E0E1FE2A22C0F7FC3A
:1050500029C0892F80538A3070F4F6FE05C0989CD1
:10506000902C1124980E15C0E89CE02C1124E80E19
:10507000F0E2FF2A0EC09E3229F4F6FC6BC140E438
:10508000F42A07C09C3619F450E8F52A02C0983675
:1050900049F4F20123FD959123FF91912F0199236A
:1050A00009F0B8CF892F8554833018F080528330AF
:1050B00038F444E050E0A40EB51E5FE359830FC0FE
:1050C000933631F0933779F0933509F056C020C00C
:1050D000F5018081898342E050E0A40EB51E610194
:1050E00001E010E012C0F501C080D180F6FC03C0E1
:1050F0006FEF7FEF02C0692D70E042E050E0A40E38
:10510000B51EC6010E94BD298C015FE7F52214C0BF
:10511000F501C080D180F6FC03C06FEF7FEF02C0C5
:10512000692D70E042E050E0A40EB51EC6010E9459
:10513000B2298C0150E8F52AF3FE07C01AC080E2BC
:1051400090E0B3010E94C829EA948E2D90E00817E0
:105150001907A8F30EC0F601F7FC8591F7FE8191BF
:105160006F0190E0B3010E94C829E110EA94015058
:1051700010400115110579F7EAC0943611F09936FF
:1051800069F5F7FE08C0F501208131814281538124
:1051900084E090E00AC0F501808191819C01442760
:1051A00037FD4095542F82E090E0A80EB91E9FE68F
:1051B000F92257FF09C050954095309521953F4FF2
:1051C0004F4F5F4FE0E8FE2ACA01B901A1012AE072
:1051D00030E00E94F429D82ED21840C0953729F427
:1051E0001F2D1F7E2AE030E01DC01F2D197F9F3626
:1051F00061F0903720F4983509F0ACC00FC09037BB
:1052000039F0983709F0A6C004C028E030E00AC0A1
:10521000106114FD146020E130E004C014FD16603C
:1052200020E132E017FF08C0F501608171818281C1
:10523000938144E050E008C0F50180819181BC0178
:1052400080E090E042E050E0A40EB51EA1010E9473
:10525000F429D82ED2188FE7F82EF122F6FE0BC0D3
:105260005EEFF522D91438F4F4FE07C0F2FC05C055
:105270008FEEF82202C01D2D01C0192DF4FE0DC0C5
:10528000FE01ED0DF11D8081803319F499EEF922B4
:1052900008C01F5FF2FE05C003C08F2D867809F09D
:1052A0001F5F0F2DF3FC14C0F0FE0FC01E1510F091
:1052B0009D2C0BC09D2C9E0C911A1E2D06C080E2C9
:1052C00090E0B3010E94C8291F5F1E15C0F304C0FF
:1052D0001E1510F4E11A01C0EE2404FF0FC080E394
:1052E00090E0B3010E94C82902FF1DC001FD03C068
:1052F00088E790E00EC088E590E00BC0802F8678AC
:1053000091F001FF02C08BE201C080E2F7FC8DE268
:1053100090E0B3010E94C82906C080E390E0B30189
:105320000E94C8299A94D914C0F3DA94F101ED0DC2
:10533000F11D808190E0B3010E94C829DD20A9F70A
:1053400006C080E290E0B3010E94C829EA94EE20F2
:10535000C1F743CEF30166817781CB012B96E2E161
:105360000C946E2AFC010590615070400110D8F732
:10537000809590958E0F9F1F0895FC01615070409D
:1053800001900110D8F7809590958E0F9F1F08957A
:105390000F931F93CF93DF938C01EB018B8181FFE0
:1053A0001BC082FF0DC02E813F818C819D812817FB
:1053B000390764F4E881F9810193F983E88306C031
:1053C000E885F985802F0995892B31F48E819F819D
:1053D00001969F838E8302C00FEF1FEFC801DF91FC
:1053E000CF911F910F910895FA01AA27283051F10A
:1053F000203181F1E8946F936E7F6E5F7F4F8F4F06
:105400009F4FAF4FB1E03ED0B4E03CD0670F781F64
:10541000891F9A1FA11D680F791F8A1F911DA11D49
:105420006A0F711D811D911DA11D20D009F4689482
:105430003F912AE0269F11243019305D3193DEF62A
:10544000CF010895462F4770405D4193B3E00FD0E0
:10545000C9F7F6CF462F4F70405D4A3318F0495DCB
:1054600031FD4052419302D0A9F7EACFB4E0A695AE
:105470009795879577956795BA95C9F700976105D0
:10548000710508959B01AC010A2E06945795479526
:1054900037952795BA95C9F7620F731F841F951F1B
:1054A000A01D08952F923F924F925F926F927F922C
:1054B0008F929F92AF92BF92CF92DF92EF92FF9224
:1054C0000F931F93CF93DF93CDB7DEB7CA1BDB0BD0
:1054D0000FB6F894DEBF0FBECDBF09942A88398875
:1054E00048885F846E847D848C849B84AA84B9847C
:1054F000C884DF80EE80FD800C811B81AA81B98188
:10550000CE0FD11D0FB6F894DEBF0FBECDBFED019B
:065510000895F894FFCF9E
:10551600140314051407222A2B2C3A3B3C3D3E3F2C
:105526005B5D7C7F000100E10000000008494E49F8
:105536005449414C49534520504C41594241434BF3
:1055460000444F4E452100504C4159494E472E2E9E
:105556002E004552524F523A205374617465206DA5
:10556600616368696E6520696E206D61696E20658C
:105576006E746572656420696E76616C6964207309
:1055860074617465210001000000030000000093AF
:10559600238C2300009C851E665F777269746520E4
:1055A60072657475726E6564206572726F722063BF
:1055B6006F64653A2025640A00665F7772697465D0
:1055C6002077726F7465202564206F66202564201D
:1055D600627974657320746F2066696C652E006647
:1055E6005F726561642072657475726E65642065AC
:1055F60072726F7220636F64653A2025640A0066D2
:105606005F726561642072656164202564206F663F
:105616002034342062797465732066726F6D20665B
:10562600696C652E00665F77726974652077726FA4
:105636007465202564206F66203434206279746591
:105646007320746F2066696C652E004547423234BC
:10565600302E57415600665F6F70656E2072657416
:1056660075726E6564206572726F7220636F646511
:105676003A2025640A002F00665F6D6F756E7420F0
:1056860072657475726E6564206572726F722063DE
:105696006F64653A2025640A00665F6C7365656B06
:1056A6002072657475726E6564206572726F722001
:1056B600636F64653A2025640A00665F77726974D1
:1056C600652077726F7465202564206F662034200C
:1056D600627974657320746F2066696C652E006646
:1056E6005F636C6F73652072657475726E65642096
:1056F6006572726F7220636F64653A2025640A00D2
:00000001FF
